:100000000C9435000C945D000C945D000C945D0024
:100010000C945D000C945D000C945D000C945D00EC
:100020000C945D000C945D000C945D000C945D00DC
:100030000C945D000C945D000C941A020C945D000D
:100040000C945D000C945D000C94E8010C94C201CA
:100050000C945D000C945D000C945D000C945D00AC
:100060000C945D000C945D00660211241FBECFEF5E
:10007000D8E0DEBFCDBF11E0A0E0B1E0E0E9F6E0FE
:1000800002C005900D92A033B107D9F722E0A0E39A
:10009000B1E001C01D92A932B207E1F710E0C5E35B
:1000A000D0E004C02197FE010E943B03C433D10776
:1000B000C9F70E9493020C9446030C940000CF925F
:1000C000DF92EF92FF920F931F93CF93DF936C0118
:1000D0007A018B01C0E0D0E0CE15DF0589F0D801B0
:1000E0006D918D01D601ED91FC910190F081E02D93
:1000F000C6010995892B11F47E0102C02196ECCF2F
:10010000C701DF91CF911F910F91FF90EF90DF908A
:10011000CF900895089580E090E00895FC01538DFC
:10012000448D252F30E0842F90E0821B930B5417D1
:1001300010F0CF96089501970895FC01918D828D5E
:10014000981761F0828DDF01A80FB11D5D968C912B
:10015000928D9F5F9F73928F90E008958FEF9FEF36
:100160000895FC01918D828D981731F0828DE80FF2
:10017000F11D858D90E008958FEF9FEF0895FC01AC
:10018000918D228D892F90E0805C9F4F821B910979
:100190008F7399270895FC01848DDF01A80FB11D8D
:1001A000A35ABF4F2C91848D90E001968F739927AD
:1001B000848FA689B7892C93A089B1898C9180649A
:1001C0008C93938D848D981306C00288F389E02D5B
:1001D00080818F7D80830895EF92FF920F931F930C
:1001E000CF93DF93EC0181E0888F9B8D8C8D9813EA
:1001F00005C0E889F989808185FD24C0F62E0B8D24
:1002000010E00F5F1F4F0F731127E02E8C8DE81247
:100210000CC00FB607FCFACFE889F989808185FF09
:10022000F5CFCE010E94CB00F1CF8B8DFE01E80F00
:10023000F11DE35AFF4FF0820B8FEA89FB89808121
:10024000806207C0EE89FF896083E889F98980812F
:100250008064808381E090E0DF91CF911F910F91C6
:10026000FF90EF900895CF93DF93EC01888D882362
:10027000C9F0EA89FB89808185FD05C0A889B98913
:100280008C9186FD0FC00FB607FCF5CF808185FFEE
:10029000F2CFA889B9898C9185FFEDCFCE010E945C
:1002A000CB00E7CFDF91CF91089525E0AC01249FEB
:1002B000C001259F900D1124FC01E153FE4F828166
:1002C0000190F081E02D9081892B808308952CECA2
:1002D00030E030932802209327024CEC5CEC60E085
:1002E00070E04093230250932402609325027093A0
:1002F000260225E0289FF001299FF00D1124E153EB
:10030000FE4F23813481E0E0F1E0419151914217A9
:10031000530729F041E0EA30F407B9F72FC026303F
:100320003105D1F04CF42330310521F12530310570
:1003300029F58CEC88BD08952A30310581F02B30E9
:100340003105A1F029303105C9F48DE790E0909393
:1003500089008093880008958CEC87BD08958DE70F
:1003600090E090938B0080938A0008958CEC8093AA
:10037000B30008958CEC8093B40008950C9455015B
:100380000E9441031F920F920FB60F9211242F93D8
:100390003F934F935F936F937F938F939F93AF930D
:1003A000BF93EF93FF9382E391E00E94CB00FF9114
:1003B000EF91BF91AF919F918F917F916F915F91DD
:1003C0004F913F912F910F900FBE0F901F90189556
:1003D0001F920F920FB60F9211242F938F939F931A
:1003E000EF93FF93E0914201F09143018081E0910E
:1003F0004801F091490182FD12C0908180914B012A
:100400008F5F8F7320914C01821751F0E0914B0167
:10041000F0E0EE5CFE4F958F80934B0101C0808130
:10042000FF91EF919F918F912F910F900FBE0F90A1
:100430001F9018951F920F920FB60F9211242F93B1
:100440003F934F935F936F937F938F939F93AF935C
:10045000BF93EF93FF9380E090E00E945501E091FD
:10046000D401F091D50190818091D6018923E9F0E2
:1004700082E090E00E94550183E090E00E946701D5
:1004800084E090E00E946701FF91EF91BF91AF91EE
:100490009F918F917F916F915F914F913F912F919C
:1004A0000F900FBE0F901F9018959091DB01E09177
:1004B000D901F091DA018081282F30E0892F90E076
:1004C00080959095822393238083D6CFE2E3F1E059
:1004D0001382128288EE93E0A0E0B0E084839583DB
:1004E000A683B78380E191E09183808385EC90E0DF
:1004F0009587848784EC90E09787868780EC90E0EE
:10050000918B808B81EC90E0938B828B82EC90E0DE
:10051000958B848B86EC90E0978B868B118E128E58
:10052000138E148E0895E0914201F091430182E010
:100530008083E0913E01F0913F011082E091400103
:10054000F09141018FEC808310924A01E0914601C5
:10055000F091470186E08083E0914401F0914501EC
:10056000808180618083E0914401F0914501808128
:1005700088608083E0914401F0914501808180682A
:100580008083E0914401F091450180818F7D8083DB
:100590004EE050E06EE171E082E391E00E945F0086
:1005A00042E050E06DE271E082E391E00E945F0082
:1005B000F89414BC15BC16BC89EF87BD85B5826064
:1005C00085BD80916E00826080936E0085B58360EA
:1005D00085BD229A85E290E09093DF018093DE0151
:1005E00084E08093E0018AE090E09093E2018093C0
:1005F000E10180918000816880938000809181007A
:1006000088608093810088E890E090932002809336
:100610001F0280E890E09093310180933001809137
:100620008100826080938100539A8BE290E09093E6
:10063000E4018093E30188E08093E50183E090E0AA
:100640009093E7018093E6018091B00083628093EC
:10065000B00084EB90E0909322028093210280EB23
:1006600090E090933101809330018091B1008460DB
:100670008093B100FFCFEE0FFF1F0590F491E02DA6
:10068000099481E090E0F8940C944603F894FFCF2D
:1006900003000500060009000A000B00000000002E
:1006A000EC005F008E003301BF009D00B100737449
:1006B00061727465642073657269616C000D0A0073
:00000001FF
