:100000000C9434000C9446000C9446000C9446006A
:100010000C9446000C9446000C9446000C94460048
:100020000C9446000C9446000C9446000C94EB0192
:100030000C9446000C9446000C9446000C94460028
:100040000C94A1010C9446000C9446000C944600BC
:100050000C9446000C9446000C9446000C94460008
:100060000C9446000C94460011241FBECFEFD8E03C
:10007000DEBFCDBF21E0A0E0B1E001C01D92A936F6
:10008000B207E1F70E947C020C942B030C94000051
:1000900025E0AC01249FC001259F900D1124FC0197
:1000A000EB5EFE4F83819481662399F18630910542
:1000B00031F154F483309105B1F08530910549F563
:1000C00084B5806184BD4FC08A309105E1F08B30EA
:1000D000910579F089309105E1F48091800080618B
:1000E0008093800052C08091B00080618093B00006
:1000F00024C08091B00080648093B00026C084B595
:10010000806484BD36C080918000806480938000CC
:1001100044C08630910569F134F48330910569F06B
:10012000059709F14BC08A309105B9F18B309105E3
:1001300061F0099709F042C028C08091B000836245
:100140008093B00084EB90E007C08091B00083689A
:100150008093B00083EB90E09093660180936501FB
:1001600080EB90E027C084B5836284BD88E490E092
:1001700005C084B5836884BD87E490E090936601F0
:100180008093650184E490E015C0809180008362D3
:10019000809380008AE890E007C0809180008368A7
:1001A0008093800088E890E09093660180936501D9
:1001B00080E890E0909314018093130180911301E3
:1001C00090911401803B910529F48091B1008360E6
:1001D0008093B100089525E0AC01249FC001259FC4
:1001E000900D1124FC01EB5EFE4F82810190F081A5
:1001F000E02D9081892B808308956130710511F481
:100200000C94EB0025E0289FF001299FF00D1124AC
:10021000EB5EFE4F82810190F081E02D9081809510
:100220008923808308952FE730E03093680120937D
:100230006701662331F0E0916501F0916601318339
:10024000208325E0289FF001299FF00D1124EB5E0B
:10025000FE4F2381348126303105D1F04CF4233018
:10026000310521F12530310529F58FE788BD089545
:100270002A30310581F02B303105A1F029303105CC
:10028000C9F48FE790E090938900809388000895E7
:100290008FE787BD08958FE790E090938B00809360
:1002A0008A0008958FE78093B30008958FE78093C5
:1002B000B400089560E070E00C94FD00AC018FEF95
:1002C000860F8730D8F49AB1A62FB0E021E030E055
:1002D00001C0220F6A95EAF7922B9AB985E0849FB4
:1002E000F001859FF00D1124EB5EFE4F8BE290E054
:1002F000918380832283B483A3831FC088EF860FFA
:100300008630E8F494B1862F877021E030E001C098
:10031000220F8A95EAF7922B94B985E0849FF00129
:10032000859FF00D1124EB5EFE4F85E290E09183F6
:100330008083228370E07483638381E0089580E08A
:1003400008951F920F920FB60F9211242F933F938F
:100350008F939F93AF93BF9380910F019091100162
:10036000A0911101B091120130910E0123E0230FF1
:100370002D3720F40196A11DB11D05C026E8230FDD
:100380000296A11DB11D20930E0180930F01909341
:100390001001A0931101B093120180910A01909174
:1003A0000B01A0910C01B0910D010196A11DB11D91
:1003B00080930A0190930B01A0930C01B0930D015F
:1003C000BF91AF919F918F913F912F910F900FBE51
:1003D0000F901F9018951F920F920FB60F92112435
:1003E000CF92DF92EF92FF922F933F934F935F93C1
:1003F0006F937F938F939F93AF93BF93CF93DF932D
:10040000EF93FF938091080190910901892B09F0E6
:100410005CC0C0900401D0900501E0900601F0900E
:100420000701C1E0C114D104E104F10409F0C0E006
:10043000C0930301CC2331F080910201809300012D
:1004400080930101D09101016D2F70E080E090E078
:100450000E94FD00E0911A01F0911B0190818091B2
:100460001C01892361E070E011F460E070E082E03B
:1004700090E00E94FD0060E083E090E00E941301A4
:1004800061E084E090E00E941301C111D093020169
:100490008FEFC81AD80AE80AF80A84EFC81681E074
:1004A000D806E104F10448F4C0920401D092050199
:1004B000E0920601F092070108C010920401109228
:1004C00005011092060110920701FF91EF91DF9153
:1004D000CF91BF91AF919F918F917F916F915F91DC
:1004E0004F913F912F91FF90EF90DF90CF900F9021
:1004F0000FBE0F901F901895789484B5826084BDCC
:1005000084B5816084BD85B5826085BD85B5816017
:1005100085BD80916E00816080936E001092810095
:100520008091810082608093810080918100816050
:100530008093810080918000816080938000809111
:10054000B10084608093B1008091B000816080939D
:10055000B00080917A00846080937A0080917A0064
:10056000826080937A0080917A00816080937A0023
:1005700080917A00806880937A001092C100F8948C
:1005800010928100109280001092820010928100DF
:1005900010928500109284008FE79EE3909389006B
:1005A0008093880080918100909182008860909370
:1005B00082008093810080916F0090917000826032
:1005C0009093700080936F008091810090918200E1
:1005D0008160909382008093810078941092090149
:1005E0001092080110920401109205011092060168
:1005F000109207011092020167E080E090E00E94F3
:100600005E01259883E290E090931B0180931A018C
:1006100080E280931C018DE090E090931E01809316
:100620001D0169E082E090E00E945E0165E083E0E8
:1006300090E00E945E0160E083E090E00E9448004C
:1006400066E084E090E00E945E0161E084E090E07A
:0A0650000E944800FFCFF894FFCF8E
:00000001FF
