:100000000C943B000C944D000C944D000C944D004E
:100010000C944D000C944D000C944D000C944D002C
:100020000C944D000C944D000C944D000C944D001C
:100030000C944D000C944D000C94E0010C944D0078
:100040000C944D000C944D000C944D000C944D00FC
:100050000C944D000C944D000C944D000C944D00EC
:100060000C944D000C944D0021012301270129011E
:100070002B012B012D0111241FBECFEFD8E0DEBFD5
:10008000CDBF21E0A0E0B1E001C01D92A835B207CC
:10009000E1F70E943D020C94F6030C94000025E069
:1000A000AC01249FC001259F900D1124FC01E85F45
:1000B000FE4F82810190F081E02D9081892B808319
:1000C0000895AC018FEF860F8730D8F49AB1A62F30
:1000D000B0E021E030E001C0220F6A95EAF7922BF0
:1000E0009AB985E0849FF001859FF00D1124E85FA7
:1000F000FE4F8BE290E0918380832283B483A383BD
:100100001FC088EF860F8630E8F494B1862F877081
:1001100021E030E001C0220F8A95EAF7922B94B9D2
:1001200085E0849FF001859FF00D1124E85FFE4F6C
:1001300085E290E091838083228370E074836383FF
:1001400081E0089580E0089525E0AC01249FC0017E
:10015000259F900D1124FC01E85FFE4F838194815F
:1001600086309105C9F164F483309105F9F0059763
:1001700009F054C084B5836284BD88E490E031C046
:100180008A309105A9F18B309105C1F0099709F0EA
:1001900045C08091800081688093800080918100BB
:1001A0008860809381008AE890E02EC08091B00042
:1001B00083628093B00084EB90E007C08091B00030
:1001C00083688093B00083EB90E090930701809365
:1001D000060180EB90E01EC084B5836884BD87E48F
:1001E00090E0909307018093060184E490E012C0B0
:1001F000809180008162809380008091810088607E
:100200008093810088E890E090930301809302013D
:1002100080E890E0909305018093040180910401AF
:1002200090910501803B9105D1F4FB013197E730B6
:10023000F10508F063C0EC5CFF4F8091B1000C94B5
:10024000F003816001C082608093B10008958360F3
:10025000FBCF8460F9CF8560F7CF8760F5CF84341A
:10026000910511F563307105A9F03CF46130710519
:1002700059F06230710559F008956430710569F0E4
:100280006530710569F0089585B581600BC085B54D
:10029000826008C085B5836005C085B5846002C0F2
:1002A00085B5856085BD08958038910539F5633041
:1002B0007105B9F03CF46130710559F06230710597
:1002C00061F008956430710581F06530710589F041
:1002D00008958091810081600FC0809181008260CB
:1002E0000BC080918100836007C080918100846091
:1002F00003C0809181008560809381000895CF9331
:10030000DF93EC01CB01BA0120E030E04FE753E48A
:100310000E94830320E030E0A9010E9490020E9425
:10032000FC0225E02C9FF0012D9FF00D1124E85FC9
:10033000FE4F2381348126303105B9F044F4233057
:100340003105E9F025303105E9F468BD36C02A30C1
:10035000310569F02B30310579F02930310591F400
:10036000709389006093880028C067BD26C0709391
:100370008B0060938A0021C06093B3001EC060931D
:10038000B4001BC060387105810591058CF485E0CF
:100390008C9FF0018D9FF00D1124E85FFE4F82814C
:1003A0000190F081E02D908180958923808305C0A4
:1003B000CE01DF91CF910C944F00DF91CF91089542
:1003C0001F920F920FB60F9211242F933F934F93CA
:1003D0005F936F937F938F939F93AF93BF93EF93AD
:1003E000FF938091000190910101892BA9F580E094
:1003F00090E00E944F00E0910D01F0910E0190817C
:1004000080910F01892319F580911401E091120167
:10041000F0911301908180958923808340E050E022
:1004200060E07FE383E090E00E947F0140E050E0E5
:1004300060E07FE384E090E00E947F014DEC5CECA3
:100440006CE47FE385E090E00E947F0105C082E0DC
:1004500090E00E944F00E2CFFF91EF91BF91AF91EA
:100460009F918F917F916F915F914F913F912F91CC
:100470000F900FBE0F901F901895F89414BC15BCE8
:1004800016BC89EF87BD85B5826085BD80916E0001
:10049000826080936E0085B5816085BD78941092EE
:1004A00001011092000167E080E090E00E9461008D
:1004B000259883E290E090930E0180930D0180E2F5
:1004C00080930F018DE090E09093110180931001D3
:1004D00068E082E090E00E94610069E083E090E0E3
:1004E0000E94610063E070E083E090E00E94A4005D
:1004F0006AE084E090E00E94610063E070E084E0E4
:1005000090E00E94A40063E085E090E00E9461001A
:1005100064E070E085E090E00E94A400FFCF5058B6
:10052000BB27AA270E94A7020C9449030E943B0301
:1005300038F00E94420320F039F49F3F19F426F46A
:100540000C9438030EF4E095E7FB0C943203E92F8A
:100550000E945A0358F3BA17620773078407950776
:1005600020F079F4A6F50C947C030EF4E0950B2EA4
:10057000BA2FA02D0B01B90190010C01CA01A001F5
:100580001124FF27591B99F0593F50F4503E68F150
:100590001A16F040A22F232F342F4427585FF3CF91
:1005A000469537952795A795F0405395C9F77EF462
:1005B0001F16BA0B620B730B840BBAF09150A1F0AB
:1005C000FF0FBB1F661F771F881FC2F70EC0BA0F31
:1005D000621F731F841F48F4879577956795B795B9
:1005E000F7959E3F08F0B0CF9395880F08F09927B4
:1005F000EE0F9795879508950E9403036894B111B3
:100600000C947D0308950E94620388F09F5798F030
:10061000B92F9927B751B0F0E1F0660F771F881F07
:10062000991F1AF0BA95C9F714C0B13091F00E9421
:100630007C03B1E008950C947C03672F782F882702
:10064000B85F39F0B93FCCF3869577956795B39548
:10065000D9F73EF490958095709561957F4F8F4FB7
:100660009F4F089597F99F6780E870E060E00895D4
:100670009FEF80EC089500240A94161617061806BA
:100680000906089500240A94121613061406050696
:100690000895092E0394000C11F4882352F0BB0F27
:1006A00040F4BF2B11F460FF04C06F5F7F4F8F4F8A
:1006B0009F4F089557FD9058440F551F59F05F3FC5
:1006C00071F04795880F97FB991F61F09F3F79F074
:1006D00087950895121613061406551FF2CF4695F6
:1006E000F1DF08C0161617061806991FF1CF869578
:1006F0007105610508940895E894BB27662777275C
:10070000CB0197F908950E9496030C9449030E9427
:100710003B0338F00E94420320F0952311F00C9423
:1007200032030C94380311240C947D030E945A0365
:1007300070F3959FC1F3950F50E0551F629FF00134
:10074000729FBB27F00DB11D639FAA27F00DB11D4D
:10075000AA1F649F6627B00DA11D661F829F2227D6
:10076000B00DA11D621F739FB00DA11D621F839F5D
:10077000A00D611D221F749F3327A00D611D231F33
:10078000849F600D211D822F762F6A2F11249F5781
:1007900050409AF0F1F088234AF0EE0FFF1FBB1F84
:1007A000661F771F881F91505040A9F79E3F510543
:1007B00080F00C9432030C947D035F3FE4F3983E89
:1007C000D4F3869577956795B795F795E7959F5FED
:1007D000C1F7FE2B880F911D9695879597F908957F
:1007E000EE0FFF1F0590F491E02D0994F894FFCFD0
:00000001FF
