:100000000C943B000C944D000C944D000C944D004E
:100010000C944D000C944D000C944D000C944D002C
:100020000C944D000C944D000C944D000C94CB019D
:100030000C944D000C944D000C944D000C944D000C
:100040000C944D000C944D000C944D000C944D00FC
:100050000C944D000C944D000C944D000C944D00EC
:100060000C944D000C944D0021012301270129011E
:100070002B012D012F0111241FBECFEFD8E0DEBFD1
:10008000CDBF21E0A0E0B1E001C01D92A835B207CC
:10009000E1F70E9420020C9490020C94000025E0ED
:1000A000AC01249FC001259F900D1124FC01E85F45
:1000B000FE4F82810190F081E02D9081892B808319
:1000C0000895AC018FEF860F8730D8F49AB1A62F30
:1000D000B0E021E030E001C0220F6A95EAF7922BF0
:1000E0009AB985E0849FF001859FF00D1124E85FA7
:1000F000FE4F8BE290E0918380832283B483A383BD
:100100001FC088EF860F8630E8F494B1862F877081
:1001100021E030E001C0220F8A95EAF7922B94B9D2
:1001200085E0849FF001859FF00D1124E85FFE4F6C
:1001300085E290E091838083228370E074836383FF
:1001400081E0089580E0089525E0AC01249FC0017E
:10015000259F900D1124FC01E85FFE4F838194815F
:1001600086309105C9F164F483309105F9F0059763
:1001700009F054C084B5836284BD88E490E031C046
:100180008A309105A9F18B309105C1F0099709F0EA
:1001900045C08091800081688093800080918100BB
:1001A0008860809381008AE890E02EC08091B00042
:1001B00083628093B00084EB90E007C08091B00030
:1001C00083688093B00083EB90E090930701809365
:1001D000060180EB90E01EC084B5836884BD87E48F
:1001E00090E0909307018093060184E490E012C0B0
:1001F000809180008162809380008091810088607E
:100200008093810088E890E090930301809302013D
:1002100080E890E0909305018093040180910401AF
:1002200090910501803B9105E1F4FB013197E730A6
:10023000F10508F065C0EC5CFF4F8091B1000C94B3
:100240008A02816001C082608093B100089583605A
:10025000FBCF8460F9CF8560F7CF8660F5CF8760EC
:10026000F3CF8434910511F563307105A9F03CF4A6
:100270006130710559F06230710559F008956430AC
:10028000710569F06530710569F0089585B5816083
:100290000BC085B5826008C085B5836005C085B593
:1002A000846002C085B5856085BD0895803891055C
:1002B00039F563307105B9F03CF46130710559F0DE
:1002C0006230710561F008956430710581F0653028
:1002D000710589F008958091810081600FC080913F
:1002E000810082600BC080918100836007C0809193
:1002F0008100846003C080918100856080938100CB
:10030000089525E0289FF001299FF00D1124E85F52
:10031000FE4F2381348126303105D1F04CF4233057
:10032000310521F12530310529F58FE788BD089584
:100330002A30310581F02B303105A1F0293031050B
:10034000C9F48FE790E09093890080938800089526
:100350008FE787BD08958FE790E090938B0080939F
:100360008A0008958FE78093B30008958FE7809304
:10037000B400089525E0289FF001299FF00D112475
:10038000E85FFE4F82810190F081E02D90818095A1
:100390008923808308951F920F920FB60F92112424
:1003A0002F933F934F935F936F937F938F939F937D
:1003B000AF93BF93EF93FF93809100019091010160
:1003C000892B69F580E090E00E944F00E0910D01DB
:1003D000F0910E01908180910F018923D9F48091D1
:1003E0001401E0911201F09113019081809589230D
:1003F000808383E090E00E94810184E090E00E948D
:10040000810185E090E00E94810186E090E00E94F9
:10041000810105C082E090E00E944F00EACFFF9189
:10042000EF91BF91AF919F918F917F916F915F916C
:100430004F913F912F910F900FBE0F901F901895E5
:10044000F894109280001092810010928500109212
:10045000840089EF90E090938900809388008091D8
:10046000810088608093810080916F00826080931A
:100470006F00809181008160809381007894109258
:1004800001011092000167E080E090E00E946100AD
:10049000259883E290E090930E0180930D0180E215
:1004A00080930F018DE090E09093110180931001F3
:1004B00068E082E090E00E94610065E083E090E007
:1004C0000E94610064E070E083E090E00E94A4007C
:1004D00063E084E090E00E94610064E070E084E00A
:1004E00090E00E94A40069E085E090E00E94610035
:1004F00063E070E085E090E00E94A4006AE086E09E
:1005000090E00E94610063E070E086E090E00E946D
:10051000A400FFCFEE0FFF1F0590F491E02D09948A
:04052000F894FFCF7D
:00000001FF
