:100000000C9434000C9446000C9446000C9446006A
:100010000C9446000C9446000C9446000C94460048
:100020000C9446000C9446000C9446000C94C201BB
:100030000C9446000C9446000C9446000C94460028
:100040000C9478010C9446000C9446000C944600E5
:100050000C9446000C9446000C9446000C94460008
:100060000C9446000C94460011241FBECFEFD8E03C
:10007000DEBFCDBF21E0A0E0B1E001C01D92A936F6
:10008000B207E1F70E9453020C94F2020C940000B4
:1000900025E0AC01249FC001259F900D1124FC0197
:1000A000EB5EFE4F83819481662309F185309105D3
:1000B000B1F04CF483309105D1F48091B0008061AF
:1000C0008093B00021C08630910569F08B30910596
:1000D00071F48091B00080648093B0002FC084B52B
:1000E000806184BD19C084B5806484BD1BC0853027
:1000F000910591F01CF4039739F031C086309105D9
:1001000089F00B97D9F02BC08091B0008362809367
:10011000B00084EB90E019C084B5836284BD88E4AC
:1001200090E005C084B5836884BD87E490E0909337
:1001300066018093650184E490E00DC08091B00079
:1001400083688093B00083EB90E090936601809386
:10015000650180EB90E090931401809313018091EE
:10016000130190911401803B910531F48091B1000D
:1001700087608093B10008958434910519F485B5A2
:10018000856085BD089525E0AC01249FC001259FB1
:10019000900D1124FC01EB5EFE4F82810190F081F5
:1001A000E02D9081892B808308956130710511F4D1
:1001B0000C94C30025E0289FF001299FF00D112425
:1001C000EB5EFE4F82810190F081E02D9081809561
:1001D0008923808308952FE730E0309368012093CE
:1001E0006701662329F0E0916501F09166012083A3
:1001F00025E0289FF001299FF00D1124EB5EFE4FB2
:100200002381348126303105D1F04CF4233031057F
:1002100021F12530310529F58FE788BD08952A3071
:10022000310581F02B303105A1F029303105C9F4B9
:100230008FE790E0909389008093880008958FE77E
:1002400087BD08958FE790E090938B0080938A009C
:1002500008958FE78093B30008958FE78093B400EB
:10026000089560E070E00C94D500AC018FEF860F2C
:100270008730D8F49AB1A62FB0E021E030E001C079
:10028000220F6A95EAF7922B9AB985E0849FF001D4
:10029000859FF00D1124EB5EFE4F8BE290E0918381
:1002A00080832283B483A3831FC088EF860F8630A8
:1002B000E8F494B1862F877021E030E001C0220F6E
:1002C0008A95EAF7922B94B985E0849FF001859F87
:1002D000F00D1124EB5EFE4F85E290E09183808368
:1002E000228370E07483638381E0089580E0089541
:1002F0001F920F920FB60F9211242F933F938F935B
:100300009F93AF93BF9380910F0190911001A091A3
:100310001101B091120130910E0123E0230F2D370E
:1003200020F40196A11DB11D05C026E8230F0296F9
:10033000A11DB11D20930E0180930F019093100118
:10034000A0931101B093120180910A0190910B01C9
:10035000A0910C01B0910D010196A11DB11D8093DA
:100360000A0190930B01A0930C01B0930D01BF9172
:10037000AF919F918F913F912F910F900FBE0F9052
:100380001F9018951F920F920FB60F921124CF92C3
:10039000DF92EF92FF922F933F934F935F936F9370
:1003A0007F938F939F93AF93BF93CF93DF93EF93FD
:1003B000FF938091080190910901892B09F05CC09D
:1003C000C0900401D0900501E0900601F090070173
:1003D000C1E0C114D104E104F10409F0C0E0C0930C
:1003E0000301CC2331F080910201809300018093BE
:1003F0000101D09101016D2F70E080E090E00E943A
:10040000D500E0911A01F0911B01908180911C01AF
:10041000892361E070E011F460E070E082E090E038
:100420000E94D50061E083E090E00E94EB0060E074
:1004300084E090E00E94EB00C111D09302018FEFA5
:10044000C81AD80AE80AF80A84EFC81681E0D80664
:10045000E104F10448F4C0920401D0920501E09255
:100460000601F092070108C01092040110920501E4
:100470001092060110920701FF91EF91DF91CF9149
:10048000BF91AF919F918F917F916F915F914F91AC
:100490003F912F91FF90EF90DF90CF900F900FBE84
:1004A0000F901F901895789484B5826084BD84B5B0
:1004B000816084BD85B5826085BD85B5816085BD5F
:1004C00080916E00816080936E0010928100809117
:1004D000810082608093810080918100816080939F
:1004E0008100809180008160809380008091B100C4
:1004F00084608093B1008091B00081608093B000EF
:1005000080917A00846080937A0080917A00826082
:1005100080937A0080917A00816080937A00809144
:100520007A00806880937A001092C100F89410924B
:1005300080001092810010928500109284008FE755
:100540009EE3909389008093880080918100886069
:100550008093810080916F00826080936F00809112
:10056000810081608093810078941092090110923B
:1005700008011092040110920501109206011092D8
:1005800007011092020167E080E090E00E943501CF
:10059000259883E290E090931B0180931A0180E2FA
:1005A00080931C018DE090E090931E0180931D01CB
:1005B00069E082E090E00E94350163E083E090E032
:1005C0000E94350161E083E090E00E9448006BE00A
:1005D00084E090E00E94350160E084E090E00E94B9
:0805E0004800FFCFF894FFCFA3
:00000001FF
