:100000000C9434000C9451000C9451000C94510049
:100010000C9451000C9451000C9451000C9461010B
:100020000C9451000C9451000C9451000C9451000C
:100030000C9451000C9451000C9451000C945100FC
:100040000C9417010C9451000C9451000C94510025
:100050000C9451000C9451000C9451000C945100DC
:100060000C9451000C94510011241FBECFEFD8E026
:10007000DEBFCDBF11E0A0E0B1E0E4E4F7E002C0F4
:1000800005900D92AC30B107D9F721E0ACE0B1E0BA
:1000900001C01D92AB37B207E1F70E94F0010C944A
:1000A000A0030C94000025E0AC01249FC001259F13
:1000B000900D1124FC01EF5DFE4F82810190F081D3
:1000C000E02D9081892B808308956130710511F4B2
:1000D0000C94530025E0289FF001299FF00D112476
:1000E000EF5DFE4F82810190F081E02D908180953F
:1000F0008923808308952CEC30E030937A0120939B
:1001000079014CEC5CEC60E070E040937501509339
:100110007601609377017093780125E0289FF001C4
:10012000299FF00D1124EF5DFE4F23813481E0E023
:10013000F1E0419151914217530729F041E0EA3033
:10014000F407B9F72FC026303105D1F04CF4233035
:10015000310521F12530310529F58CEC88BD089554
:100160002A30310581F02B303105A1F029303105DD
:10017000C9F48DE790E090938900809388000895FA
:100180008CEC87BD08958DE790E090938B00809371
:100190008A0008958CEC8093B30008958CEC8093D2
:1001A000B40008950C945300AC018FEF860F873094
:1001B000D8F49AB1A62FB0E021E030E001C0220FC0
:1001C0006A95EAF7922B9AB985E0849FF001859FA2
:1001D000F00D1124EF5DFE4F8BE290E09183808360
:1001E0002283B483A3831FC088EF860F8630E8F490
:1001F00094B1862F877021E030E001C0220F8A95EC
:10020000EAF7922B94B985E0849FF001859FF00D69
:100210001124EF5DFE4F85E290E09183808322837D
:1002200070E07483638381E0089580E008951F92F5
:100230000F920FB60F9211242F933F938F939F939A
:10024000AF93BF9380911D0190911E01A0911F015A
:10025000B091200130911C0123E0230F2D3720F4B1
:100260000196A11DB11D05C026E8230F0296A11D10
:10027000B11D20931C0180931D0190931E01A0933A
:100280001F01B09320018091180190911901A09154
:100290001A01B0911B010196A11DB11D8093180197
:1002A00090931901A0931A01B0931B01BF91AF91D4
:1002B0009F918F913F912F910F900FBE0F901F90A4
:1002C00018951F920F920FB60F921124CF92DF92C2
:1002D000EF92FF922F933F934F935F936F937F9390
:1002E0008F939F93AF93BF93CF93DF93EF93FF933E
:1002F0008091160190911701892B09F05AC0C09086
:100300001201D0901301E0901401F0901501C1E0AA
:10031000C114D104E104F10409F0C0E0C09311015B
:10032000CC2331F08091100180930E0180930F0156
:10033000D0910F016D2F70E080E090E00E94650089
:10034000E0912601F0912701908180912801892375
:1003500061E070E011F460E070E082E090E00E9403
:10036000650083E090E00E947B0084E090E00E94C2
:100370007B00C111D09310018FEFC81AD80AE80A88
:10038000F80A84EFC81681E0D806E104F10448F4C5
:10039000C0921201D0921301E0921401F092150163
:1003A00008C01092120110921301109214011092C1
:1003B0001501FF91EF91DF91CF91BF91AF919F9187
:1003C0008F917F916F915F914F913F912F91FF900E
:1003D000EF90DF90CF900F900FBE0F901F90189569
:1003E000789404E410E084B5826084BD84B58160B3
:1003F00084BD85B5826085BD85B5816085BD8091F0
:100400006E00816080936E00109281008091810067
:10041000826080938100809181008160809381005F
:10042000C0E8D0E08091800081608093800080915E
:10043000B10084608093B10080EBE82EF12C8091B4
:10044000B00081608093B00080917A0084608093D6
:100450007A0080917A00826080937A0080917A009D
:10046000816080937A0080917A00806880937A001E
:100470001092C100F8941092B0001092B100109246
:10048000B20089EF8093B3008091B10082608093C5
:10049000B100809170008260809370008091B10003
:1004A00083608093B1007894109217011092160126
:1004B0001092120110921301109214011092150162
:1004C0001092100167E080E090E00E94D40025982F
:1004D00083E290E0909327018093260180E280934D
:1004E00028018DE090E090932A018093290168E033
:1004F00082E090E00E94D4006AE083E090E00E94F5
:10050000D40080913301909134018630910509F433
:1005100042C064F48330910531F1059709F063C05E
:1005200084B5836284BD88E490E03AC08A30910546
:1005300009F43FC08B309105F1F0099709F053C0E1
:100540008FEF9FEF909387008093860080918000CB
:100550008162809380008091810088608093810017
:100560008AE890E038C08091B00083628093B00048
:1005700084EB90E007C08091B00083688093B00066
:1005800083EB90E09093740180937301F0920D01DE
:10059000E0920C0128C084B5836884BD87E490E0B4
:1005A000909374018093730110930D0100930C01DB
:1005B0001AC08FEF9FEF9093870080938600809101
:1005C00080008168809380008091810088608093A2
:1005D000810088E890E09093720180937101D0933C
:1005E0000D01C0930C0180910C0190910D01803B95
:1005F000910531F48091B10082608093B1000FC009
:100600008434910521F485B5826085BD08C08038A9
:10061000910529F48091810082608093810066E0D9
:1006200084E090E00E94D4008091380190913901DB
:100630008630910509F43FC064F48330910529F1B7
:10064000059709F060C084B5836284BD88E490E0BA
:1006500037C08A309105D9F18B309105F1F00997B7
:1006600009F051C08FEF9FEF909387008093860031
:1006700080918000816280938000809181008860F9
:10068000809381008AE890E034C08091B00083625A
:100690008093B00084EB90E007C08091B000836845
:1006A0008093B00083EB90E090937401809373018A
:1006B00080EB90E024C084B5836884BD87E490E03B
:1006C000909374018093730184E490E018C08FEFDD
:1006D0009FEF9093870080938600809180008168CF
:1006E000809380008091810088608093810088E8F9
:1006F00090E0909372018093710180E890E0909374
:100700000D0180930C0180910C0190910D01803BB3
:10071000910531F48091B10083608093B1000FC0E6
:100720008434910521F485B5836085BD08C0803887
:10073000910529F480918100836080938100FFCF2F
:04074000F894FFCF5B
:0C07440003000500060009000A000B007D
:00000001FF
