:100000000C9434000C9446000C9446000C9446006A
:100010000C9446000C9446000C9446000C94460048
:100020000C9446000C9446000C9446000C94FD0081
:100030000C9446000C9446000C9446000C94460028
:100040000C94B3000C9446000C9446000C944600AB
:100050000C9446000C9446000C9446000C94460008
:100060000C9446000C94460011241FBECFEFD8E03C
:10007000DEBFCDBF21E0A0E0B1E001C01D92A737F7
:10008000B207E1F70E94D7020C9480050C9400009F
:1000900025E0AC01249FC001259F900D1124FC0197
:1000A000EE5FFE4F82810190F081E02D9081892BDF
:1000B000808308956130710511F40C94480025E0A7
:1000C000289FF001299FF00D1124EE5FFE4F8281E1
:1000D0000190F081E02D908180958923808308959F
:1000E000AC018FEF860F8730D8F49AB1A62FB0E01D
:1000F00021E030E001C0220F6A95EAF7922B9AB90D
:1001000085E0849FF001859FF00D1124EE5FFE4F86
:100110008BE290E0918380832283B483A3831FC00A
:1001200088EF860F8630E8F494B1862F877021E03F
:1001300030E001C0220F8A95EAF7922B94B985E04E
:10014000849FF001859FF00D1124EE5FFE4F85E244
:1001500090E091838083228370E07483638381E0E5
:10016000089580E008951F920F920FB60F92112408
:100170002F933F938F939F93AF93BF93809173017E
:1001800090917401A0917501B09176013091720146
:1001900023E0230F2D3720F40196A11DB11D05C0CA
:1001A00026E8230F0296A11DB11D209372018093B2
:1001B000730190937401A0937501B09376018091BF
:1001C0006E0190916F01A0917001B0917101019643
:1001D000A11DB11D80936E0190936F01A0937001DA
:1001E000B0937101BF91AF919F918F913F912F91EA
:1001F0000F900FBE0F901F9018951F920F920FB681
:100200000F921124CF92DF92EF92FF921F932F93C0
:100210003F934F935F936F937F938F939F93AF938E
:10022000BF93EF93FF93CF93DF93CDB7DEB7A8973C
:10023000DEBFCDBF80916C0190916D01892B09F0DB
:1002400098C181E04091640150916501609166011F
:1002500070916701452B462B472B09F080E0809376
:10026000620111E0409168015091690160916A0159
:1002700070916B01452B462B472B09F010E0109332
:100280006301882331F080915D0180935301809355
:1002900054016091540170E080E090E00E945A00A7
:1002A000E0910701F0910801908180910901892373
:1002B00061E070E011F460E070E082E090E00E94A4
:1002C0005A00112341F1C0905E01D0905F01E0908F
:1002D0006001F0906101C0925501D0925601E09208
:1002E0005701F092580120E030E04FE753E4C70196
:1002F000B6010E94260487FD06C0C12CD12C9FE7C1
:10030000E92E93E4F92EC0925901D0925A01E0925D
:100310005B01F0925C016091590170915A018091EA
:100320005B0190915C010E942B04072E000C880B4E
:10033000990B0E94630420E030E04FE753E40E94F1
:10034000130520E030E0A9010E94BA030E942B04AB
:10035000AB01E0901401F09015016115710539F4BD
:1003600060E070E083E090E00E945A0093C06F3F2D
:10037000710529F483E090E00E9448008BC0DE0103
:10038000119628E2FD0111922A95E9F723E030E069
:1003900038872F8325E030E03C872B8726E030E04C
:1003A0003E872D872BE030E0388F2F8BF701EE0F43
:1003B000FF1FEA0FFB1F208131812630310571F1CB
:1003C0009CF42330310509F452C02530310509F081
:1003D0005CC024B5206224BD20E830E030930101E8
:1003E0002093000168BD56C02A30310511F12B3031
:1003F000310579F12930310509F047C0209180009D
:1004000020682093800020E830E0309301012093A1
:10041000000170938900609388003CC024B5206877
:1004200024BD20E830E0309301012093000167BD36
:1004300031C02091800020622093800020E830E0CD
:10044000309301012093000170938B0060938A0028
:1004500021C02091B00020682093B00020EB30E054
:1004600030930101209300016093B30013C02091E9
:10047000B00020622093B00020EB30E03093010107
:10048000209300016093B40005C0403851050CF082
:1004900071CF66CF1092520180916C0190916D01E5
:1004A000892B09F066C080916201882321F0809138
:1004B000540180935D01809163018823B1F02DEC9C
:1004C0003CEC4CEC5DE360915501709156018091DC
:1004D0005701909158010E94BA0360935E01709396
:1004E0005F0180936001909361018091640190911C
:1004F0006501A0916601B09167010196A11DB11D32
:10050000843FF1E09F07A105B10548F480936401A1
:1005100090936501A0936601B093670108C01092A3
:10052000640110926501109266011092670180913A
:10053000680190916901A0916A01B0916B010196E7
:10054000A11DB11D803223E09207A105B10548F439
:100550008093680190936901A0936A01B0936B0145
:1005600008C0109268011092690110926A011092FD
:100570006B01A8960FB6F894DEBF0FBECDBFDF911A
:10058000CF91FF91EF91BF91AF919F918F917F910B
:100590006F915F914F913F912F911F91FF90EF903D
:1005A000DF90CF900F900FBE0F901F90189578940A
:1005B00004E410E084B5826084BD84B5816084BDAC
:1005C00085B5826085BD85B5816085BD80916E00F1
:1005D000816080936E001092810080918100826022
:1005E000809381008091810081608093810080915F
:1005F00080008160809380008091B100846080934E
:10060000B100C0EBD0E08091B00081608093B00079
:1006100080917A00846080937A0080917A00826071
:1006200080937A0080917A00816080937A00809133
:100630007A00806880937A001092C100F89410923A
:1006400080001092810010928500109284008FE744
:100650009EE3909389008093880080918100886058
:100660008093810080916F00826080936F00809101
:100670008100816080938100789410926D011092C6
:100680006C01109264011092650110926601109243
:100690006701109268011092690110926A0110922C
:1006A0006B0110925D0167E080E090E00E947000B5
:1006B000259883E290E0909308018093070180E2FF
:1006C000809309018DE090E090930B0180930A01E3
:1006D00069E082E090E00E94700010925E0110924A
:1006E0005F01109260011092610166E083E090E08A
:1006F0000E94700080911401909115018530910540
:1007000081F034F40397F1F48091B000836814C051
:100710008630910549F00B97A9F48091B00083626F
:100720000BC084B5836202C084B5836884BD109316
:1007300001010093000106C08093B000D093010135
:10074000C09300018091000190910101803B9105CF
:1007500031F48091B10081608093B10006C084348F
:10076000910519F485B5816085BD81E080935201C2
:10077000FFCF5058BB27AA270E94D1030C94D9045D
:100780000E94CB0438F00E94D20420F039F49F3F3D
:1007900019F426F40C94C8040EF4E095E7FB0C94CD
:1007A000C204E92F0E94EA0458F3BA1762077307DC
:1007B0008407950720F079F4A6F50C940C050EF447
:1007C000E0950B2EBA2FA02D0B01B90190010C0161
:1007D000CA01A0011124FF27591B99F0593F50F479
:1007E000503E68F11A16F040A22F232F342F4427D1
:1007F000585FF3CF469537952795A795F0405395C9
:10080000C9F77EF41F16BA0B620B730B840BBAF098
:100810009150A1F0FF0FBB1F661F771F881FC2F703
:100820000EC0BA0F621F731F841F48F48795779517
:100830006795B795F7959E3F08F0B0CF9395880FD1
:1008400008F09927EE0F9795879508950E949E04CA
:1008500008F481E008950E9432046894B1110C9468
:100860000D0508950E94F20488F09F5798F0B92F63
:100870009927B751B0F0E1F0660F771F881F991FD5
:100880001AF0BA95C9F714C0B13091F00E940C0566
:10089000B1E008950C940C05672F782F8827B85F76
:1008A00039F0B93FCCF3869577956795B395D9F72D
:1008B0003EF490958095709561957F4F8F4F9F4F37
:1008C0000895E89409C097FB3EF490958095709543
:1008D00061957F4F8F4F9F4F9923A9F0F92F96E98C
:1008E000BB279395F695879577956795B795F11101
:1008F000F8CFFAF4BB0F11F460FF1BC06F5F7F4F9E
:100900008F4F9F4F16C0882311F096E911C07723AF
:1009100021F09EE8872F762F05C0662371F096E8B8
:10092000862F70E060E02AF09A95660F771F881F87
:10093000DAF7880F9695879597F90895990F00082B
:10094000550FAA0BE0E8FEEF16161706E807F907A1
:10095000C0F012161306E407F50798F0621B730B3C
:10096000840B950B39F40A2661F0232B242B252BBD
:1009700021F408950A2609F4A140A6958FEF811D60
:10098000811D089597F99F6780E870E060E0089501
:100990009FEF80EC089500240A9416161706180697
:1009A0000906089500240A94121613061406050673
:1009B0000895092E0394000C11F4882352F0BB0F04
:1009C00040F4BF2B11F460FF04C06F5F7F4F8F4F67
:1009D0009F4F089557FD9058440F551F59F05F3FA2
:1009E00071F04795880F97FB991F61F09F3F79F051
:1009F00087950895121613061406551FF2CF4695D3
:100A0000F1DF08C0161617061806991FF1CF869554
:100A10007105610508940895E894BB276627772738
:100A2000CB0197F908950E9426050C94D9040E94E1
:100A3000CB0438F00E94D20420F0952311F00C94DE
:100A4000C2040C94C80411240C940D050E94EA04FD
:100A500070F3959FC1F3950F50E0551F629FF00111
:100A6000729FBB27F00DB11D639FAA27F00DB11D2A
:100A7000AA1F649F6627B00DA11D661F829F2227B3
:100A8000B00DA11D621F739FB00DA11D621F839F3A
:100A9000A00D611D221F749F3327A00D611D231F10
:100AA000849F600D211D822F762F6A2F11249F575E
:100AB00050409AF0F1F088234AF0EE0FFF1FBB1F61
:100AC000661F771F881F91505040A9F79E3F510520
:100AD00080F00C94C2040C940D055F3FE4F3983E43
:100AE000D4F3869577956795B795F795E7959F5FCA
:100AF000C1F7FE2B880F911D9695879597F908955C
:040B0000F894FFCF97
:00000001FF
