:100000000C9434000C9446000C9446000C9446006A
:100010000C9446000C9446000C9446000C94460048
:100020000C9446000C9446000C9446000C94EB0093
:100030000C9446000C9446000C9446000C94460028
:100040000C94A1000C9446000C9446000C944600BD
:100050000C9446000C9446000C9446000C94460008
:100060000C9446000C94460011241FBECFEFD8E03C
:10007000DEBFCDBF21E0A0E0B1E001C01D92A336FC
:10008000B207E1F70E94F4010C9484020C94000082
:1000900025E0289FF001299FF00D1124E050FF4F2B
:1000A00082810190F081E02D90816130710511F421
:1000B000892B02C08095892380830895AC018FEF3E
:1000C000860F8730D8F49AB1A62FB0E021E030E057
:1000D00001C0220F6A95EAF7922B9AB985E0849FB6
:1000E000F001859FF00D1124E050FF4F8BE290E06E
:1000F000918380832283B483A3831FC088EF860FFC
:100100008630E8F494B1862F877021E030E001C09A
:10011000220F8A95EAF7922B94B985E0849FF0012B
:10012000859FF00D1124E050FF4F85E290E0918310
:100130008083228370E07483638381E0089580E08C
:1001400008951F920F920FB60F9211242F933F9391
:100150008F939F93AF93BF9380915F0190916001C4
:10016000A0916101B091620130915E0123E0230F03
:100170002D3720F40196A11DB11D05C026E8230FDF
:100180000296A11DB11D20935E0180935F019093A3
:100190006001A0936101B093620180915A01909136
:1001A0005B01A0915C01B0915D010196A11DB11DA3
:1001B00080935A0190935B01A0935C01B0935D0121
:1001C000BF91AF919F918F913F912F910F900FBE53
:1001D0000F901F9018951F920F920FB60F92112437
:1001E0002F933F934F935F936F937F938F939F933F
:1001F000AF93BF93EF93FF93CF93DF93CDB7DEB76A
:10020000A897DEBFCDBF8091580190915901892BED
:1002100009F0D1C081E040915401509155016091A5
:10022000560170915701452B462B472B09F080E072
:1002300080935301882341F0909152019093500193
:1002400081E08927809351016091510170E080E045
:1002500090E00E944800E0910501F0910601908134
:1002600080910701892361E070E011F460E070E0A3
:1002700082E090E00E944800209112013091130129
:10028000DE01119688E2FD0111928A95E9F783E07B
:1002900090E098878F8385E090E09C878B8786E04D
:1002A00090E09E878D878BE090E0988F8F8BF9018F
:1002B000EE0FFF1FEA0FFB1F8081918186309105B1
:1002C00001F15CF483309105B9F10597F1F584B53E
:1002D000806284BD8CE588BD3EC08A309105B9F04E
:1002E0008B30910501F1099781F58091800080683C
:1002F000809380008CE590E0909389008093880043
:100300002AC084B5806884BD8CE587BD24C08091F7
:1003100080008062809380008CE590E090938B0059
:1003200080938A0018C08091B00080688093B000EC
:100330008CE58093B3000FC08091B0008062809301
:10034000B0008CE58093B40006C060E070E083E00C
:1003500090E00E9448008091580190915901892BAA
:1003600051F580915301882321F0809151018093B0
:1003700052018091540190915501A0915601B09184
:1003800057010196A11DB11D843FF1E09F07A10512
:10039000B10548F48093540190935501A093560100
:1003A000B093570108C01092540110925501109259
:1003B000560110925701A8960FB6F894DEBF0FBEF3
:1003C000CDBFDF91CF91FF91EF91BF91AF919F9101
:1003D0008F917F916F915F914F913F912F910F90EE
:1003E0000FBE0F901F901895789484B5826084BDDD
:1003F00084B5816084BD85B5826085BD85B5816029
:1004000085BD80916E00816080936E0010928100A6
:100410008091810082608093810080918100816061
:100420008093810080918000816080938000809122
:10043000B10084608093B1008091B00081608093AE
:10044000B00080917A00846080937A0080917A0075
:10045000826080937A0080917A00816080937A0034
:1004600080917A00806880937A001092C100F8949D
:1004700010928000109281001092850010928400EA
:100480008FE79EE39093890080938800809181009C
:1004900088608093810080916F00826080936F00FC
:1004A000809181008160809381007894109259013D
:1004B0001092580110925401109255011092560159
:1004C000109257011092520167E080E090E00E9484
:1004D0005E00259883E290E09093060180930501E9
:1004E00080E2809307018DE090E090930901809372
:1004F000080169E082E090E00E945E0066E083E02F
:0C05000090E00E945E00FFCFF894FFCF57
:00000001FF
