:100000000C9435000C945D000C945D000C945D0024
:100010000C945D000C945D000C945D000C945D00EC
:100020000C945D000C945D000C945D000C9419021E
:100030000C945D000C945D000C945D000C945D00CC
:100040000C9477010C945D000C94E7010C94C101B1
:100050000C945D000C945D000C945D000C945D00AC
:100060000C945D000C945D00780311241FBECFEF4B
:10007000D8E0DEBFCDBF11E0A0E0B1E0E4E3F9E0FD
:1000800002C005900D92AE36B107D9F722E0AEE678
:10009000B1E001C01D92A436B207E1F710E0C5E35C
:1000A000D0E004C02197FE010E948D04C433D10723
:1000B000C9F70E94A5030C9498040C940000CF92F9
:1000C000DF92EF92FF920F931F93CF93DF936C0118
:1000D0007A018B01C0E0D0E0CE15DF0589F0D801B0
:1000E0006D918D01D601ED91FC910190F081E02D93
:1000F000C6010995892B11F47E0102C02196ECCF2F
:10010000C701DF91CF911F910F91FF90EF90DF908A
:10011000CF900895089580E090E00895FC01538DFC
:10012000448D252F30E0842F90E0821B930B5417D1
:1001300010F0CF96089501970895FC01918D828D5E
:10014000981761F0828DDF01A80FB11D5D968C912B
:10015000928D9F5F9F73928F90E008958FEF9FEF36
:100160000895FC01918D828D981731F0828DE80FF2
:10017000F11D858D90E008958FEF9FEF0895FC01AC
:10018000918D228D892F90E0805C9F4F821B910979
:100190008F7399270895FC01848DDF01A80FB11D8D
:1001A000A35ABF4F2C91848D90E001968F739927AD
:1001B000848FA689B7892C93A089B1898C9180649A
:1001C0008C93938D848D981306C00288F389E02D5B
:1001D00080818F7D80830895EF92FF920F931F930C
:1001E000CF93DF93EC0181E0888F9B8D8C8D9813EA
:1001F00005C0E889F989808185FD24C0F62E0B8D24
:1002000010E00F5F1F4F0F731127E02E8C8DE81247
:100210000CC00FB607FCFACFE889F989808185FF09
:10022000F5CFCE010E94CB00F1CF8B8DFE01E80F00
:10023000F11DE35AFF4FF0820B8FEA89FB89808121
:10024000806207C0EE89FF896083E889F98980812F
:100250008064808381E090E0DF91CF911F910F91C6
:10026000FF90EF900895CF93DF93EC01888D882362
:10027000C9F0EA89FB89808185FD05C0A889B98913
:100280008C9186FD0FC00FB607FCF5CF808185FFEE
:10029000F2CFA889B9898C9185FFEDCFCE010E945C
:1002A000CB00E7CFDF91CF910895009769F0FC0173
:1002B00001900020E9F73197AF01481B590BBC01B1
:1002C00087EC91E00C945F0080E090E00895CF937C
:1002D000DF930E945501EC0184E191E00E945501F9
:1002E0008C0F9D1FDF91CF9108950E9493041F9260
:1002F0000F920FB60F9211242F933F938F939F93DA
:10030000AF93BF938091C3019091C401A091C501A7
:10031000B091C6013091C20123E0230F2D3720F4A4
:100320000196A11DB11D05C026E8230F0296A11D4F
:10033000B11D2093C2018093C3019093C401A09387
:10034000C501B093C6018091BE019091BF01A091FB
:10035000C001B091C1010196A11DB11D8093BE01E4
:100360009093BF01A093C001B093C101BF91AF9121
:100370009F918F913F912F910F900FBE0F901F90E3
:1003800018951F920F920FB60F9211242F933F933F
:100390004F935F936F937F938F939F93AF93BF938D
:1003A000EF93FF9387EC91E00E94CB00FF91EF91D8
:1003B000BF91AF919F918F917F916F915F914F917D
:1003C0003F912F910F900FBE0F901F9018951F9285
:1003D0000F920FB60F9211242F938F939F93EF9349
:1003E000FF93E091D701F091D8018081E091DD0188
:1003F000F091DE0182FD12C090818091E0018F5F5B
:100400008F732091E101821751F0E091E001F0E05B
:10041000E953FE4F958F8093E00101C08081FF91E9
:10042000EF919F918F912F910F900FBE0F901F9082
:1004300018951F920F920FB60F9211248F929F92D0
:10044000AF92BF92CF92DF92EF92FF920F931F93E2
:100450002F933F934F935F936F937F938F939F93CC
:10046000AF93BF93EF93FF93CF93DF93CDB7DEB7F7
:10047000C954D109DEBFCDBF87E191E00E94670179
:1004800081E291E00E94670100917B0110917C0163
:10049000CE0101967C0188E2F70111928A95E9F775
:1004A00083E090E098878F8385E090E09C878B873E
:1004B00086E090E09E878D878BE090E0988F8F8B11
:1004C0008FE291E00E946701000F111FF701E00F1A
:1004D000F11F008111816801012E000CEE08FF0858
:1004E000F7FE32C0E091C701F091C8010190F081A0
:1004F000E02D6DE287EC91E0099522273327A901D1
:100500002C193D094E095F092A961FAE2A9769E208
:10051000E62EF12CEC0EFD1EF0E2EF0EF11C7AE05F
:10052000872E912CA12CB12CCA01B901A5019401EF
:100530000E946B04605DF70162937F012115310514
:100540004105510589F721C0A70196012A961FAEE2
:100550002A9789E2E82EF12CEC0EFD1EF0E2EF0E58
:10056000F11C9AE0892E912CA12CB12CCA01B90161
:10057000A50194010E946B04605DF70162937F0105
:10058000211531054105510589F7C7010E94550123
:1005900084E191E00E9455010630110521F174F4C7
:1005A0000330110509F446C00530110509F04BC0B0
:1005B00084B5806284BD8FEB88BD4EC00A301105C2
:1005C00021F10B30110569F109301105E1F5809138
:1005D00080008068809380008FEB90E0909389008A
:1005E0008093880039C088E391E00E94670184B558
:1005F000806884BD89E491E00E9467018FEB87BD2C
:100600008BE591E00E94670127C0809180008062A5
:10061000809380008FEB90E090938B0080938A0012
:100620001BC08091B00080688093B0008FEB8093F6
:10063000B30012C08091B00080628093B0008FEB55
:100640008093B40009C080917A01E0917801F09123
:1006500079019081892B8083809100019091010123
:1006600001969093010180930001E0917301F09154
:1006700074019081809175018923E0916E01F09160
:100680006F01882329F0809170019081892B0BC024
:10069000909170018081282F30E0892F90E0809523
:1006A0009095822393238083C75BDF4F0FB6F89426
:1006B000DEBF0FBECDBFDF91CF91FF91EF91BF9114
:1006C000AF919F918F917F916F915F914F913F91EA
:1006D0002F911F910F91FF90EF90DF90CF90BF90DF
:1006E000AF909F908F900F900FBE0F901F90189516
:1006F000E7ECF1E01382128288EE93E0A0E0B0E034
:1007000084839583A683B78386E091E09183808379
:1007100085EC90E09587848784EC90E097878687C6
:1007200080EC90E0918B808B81EC90E0938B828BBE
:1007300082EC90E0958B848B86EC90E0978B868B97
:10074000118E128E138E148E0895789484B5826063
:1007500084BD84B5816084BD85B5826085BD85B565
:10076000816085BD80916E00816080936E001092E3
:10077000810080918100826080938100809181005E
:1007800081608093810080918000816080938000EF
:100790008091B10084608093B1008091B00081604D
:1007A0008093B00080917A00846080937A00809179
:1007B0007A00826080937A0080917A0081608093D1
:1007C0007A0080917A00806880937A001092C1004C
:1007D000F89410928000109281001092850010927F
:1007E00084008FE79EE39093890080938800809136
:1007F000810088608093810080916F008260809387
:100800006F00809181008160809381007894E091F5
:10081000D701F091D80192E09083E091D301F0915B
:10082000D4011082E091D501F091D6018FEC808344
:100830001092DF01E091DB01F091DC0186E0808322
:10084000E091D901F091DA01808180618083E091AB
:10085000D901F091DA01808188608083E091D9012B
:10086000F091DA01808180688083E091D901F09174
:10087000DA0180818F7D8083219A25E230E03093F8
:100880006F0120936E019093700189E090E0909346
:10089000720180937101259883E290E09093740136
:1008A0008093730180E2809375012DE030E03093F6
:1008B000770120937601559A2BE230E0309379014D
:1008C0002093780180937A0185E090E090937C01F9
:1008D00080937B01FFCFA1E21A2EAA1BBB1BFD0157
:1008E0000DC0AA1FBB1FEE1FFF1FA217B307E4070F
:1008F000F50720F0A21BB30BE40BF50B661F771F67
:10090000881F991F1A9469F7609570958095909546
:100910009B01AC01BD01CF010895EE0FFF1F0590B3
:10092000F491E02D099481E090E0F8940C949804FF
:04093000F894FFCF69
:10093400010000000000EC005F008E003301BF00E6
:100944009D00B1000D0A00696E7465727275707451
:1009540000696E2073657420616E616C6F6700506E
:10096400696E2069733A20005377697463683A208A
:10097400537563636573732100536574204269740E
:100984003A205375636365737321005365745F562E
:0E099400616C3A205375636365737321000034
:00000001FF
