:100000000C9435000C945D000C945D000C945D0024
:100010000C945D000C945D000C945D000C945D00EC
:100020000C945D000C945D000C945D000C941B021C
:100030000C945D000C945D000C945D000C945D00CC
:100040000C9479010C945D000C94E9010C94C301AB
:100050000C945D000C945D000C945D000C945D00AC
:100060000C945D000C945D00720211241FBECFEF52
:10007000D8E0DEBFCDBF11E0A0E0B1E0EEEAF6E0EF
:1000800002C005900D92AC34B107D9F722E0ACE480
:10009000B1E001C01D92A232B207E1F710E0C5E362
:1000A000D0E004C02197FE010E944A03C433D10767
:1000B000C9F70E949F020C9455030C940000CF9244
:1000C000DF92EF92FF920F931F93CF93DF936C0118
:1000D0007A018B01C0E0D0E0CE15DF0589F0D801B0
:1000E0006D918D01D601ED91FC910190F081E02D93
:1000F000C6010995892B11F47E0102C02196ECCF2F
:10010000C701DF91CF911F910F91FF90EF90DF908A
:10011000CF900895089580E090E00895FC01538DFC
:10012000448D252F30E0842F90E0821B930B5417D1
:1001300010F0CF96089501970895FC01918D828D5E
:10014000981761F0828DDF01A80FB11D5D968C912B
:10015000928D9F5F9F73928F90E008958FEF9FEF36
:100160000895FC01918D828D981731F0828DE80FF2
:10017000F11D858D90E008958FEF9FEF0895FC01AC
:10018000918D228D892F90E0805C9F4F821B910979
:100190008F7399270895FC01848DDF01A80FB11D8D
:1001A000A35ABF4F2C91848D90E001968F739927AD
:1001B000848FA689B7892C93A089B1898C9180649A
:1001C0008C93938D848D981306C00288F389E02D5B
:1001D00080818F7D80830895EF92FF920F931F930C
:1001E000CF93DF93EC0181E0888F9B8D8C8D9813EA
:1001F00005C0E889F989808185FD24C0F62E0B8D24
:1002000010E00F5F1F4F0F731127E02E8C8DE81247
:100210000CC00FB607FCFACFE889F989808185FF09
:10022000F5CFCE010E94CB00F1CF8B8DFE01E80F00
:10023000F11DE35AFF4FF0820B8FEA89FB89808121
:10024000806207C0EE89FF896083E889F98980812F
:100250008064808381E090E0DF91CF911F910F91C6
:10026000FF90EF900895CF93DF93EC01888D882362
:10027000C9F0EA89FB89808185FD05C0A889B98913
:100280008C9186FD0FC00FB607FCF5CF808185FFEE
:10029000F2CFA889B9898C9185FFEDCFCE010E945C
:1002A000CB00E7CFDF91CF910895CF93DF930097F5
:1002B00079F0FC0101900020E9F73197AF01481B6C
:1002C000590BBC0185E891E00E945F00EC0102C07F
:1002D000C0E0D0E042E050E062E171E085E891E00A
:1002E0000E945F008C0F9D1FDF91CF9108950E94A7
:1002F00050031F920F920FB60F9211242F933F932A
:100300008F939F93AF93BF938091810190918201CE
:10031000A0918301B09184013091800123E0230FEB
:100320002D3720F40196A11DB11D05C026E8230F2D
:100330000296A11DB11D20938001809381019093AD
:100340008201A0938301B093840180917C019091FC
:100350007D01A0917E01B0917F010196A11DB11D8B
:1003600080937C0190937D01A0937E01B0937F01E7
:10037000BF91AF919F918F913F912F910F900FBEA1
:100380000F901F9018951F920F920FB60F92112485
:100390002F933F934F935F936F937F938F939F938D
:1003A000AF93BF93EF93FF9385E891E00E94CB005A
:1003B000FF91EF91BF91AF919F918F917F916F913D
:1003C0005F914F913F912F910F900FBE0F901F9013
:1003D00018951F920F920FB60F9211242F938F939F
:1003E0009F93EF93FF93E0919501F09196018081A7
:1003F000E0919B01F0919C0182FD12C0908180915F
:100400009E018F5F8F7320919F01821751F0E091C1
:100410009E01F0E0EB57FE4F958F80939E0101C047
:100420008081FF91EF919F918F912F910F900FBE3F
:100430000F901F9018951F920F920FB60F921124D4
:100440002F933F934F935F936F937F938F939F93DC
:10045000AF93BF93EF93FF9385E191E00E94550125
:10046000E0914F01F09150019081809151018923D9
:1004700081F08FE191E00E94550180914E01E09161
:100480004C01F0914D019081892B80838EE291E0A7
:1004900016C086E391E00E94550190914E01E091D3
:1004A0004C01F0914D018081282F30E0892F90E0A0
:1004B0008095909582239323808384E491E00E9429
:1004C0005501FF91EF91BF91AF919F918F917F91D6
:1004D0006F915F914F913F912F910F900FBE0F90B1
:1004E0001F901895E5E8F1E01382128288EE93E000
:1004F000A0E0B0E084839583A683B78384E091E095
:100500009183808385EC90E09587848784EC90E0EC
:100510009787868780EC90E0918B808B81EC90E0D0
:10052000938B828B82EC90E0958B848B86EC90E0B1
:10053000978B868B118E128E138E148E089578945D
:1005400084B5826084BD84B5816084BD85B58260D8
:1005500085BD85B5816085BD80916E008160809389
:100560006E001092810080918100826080938100F2
:100570008091810081608093810080918000816002
:10058000809380008091B10084608093B10080915D
:10059000B00081608093B00080917A008460809385
:1005A0007A0080917A00826080937A0080917A004C
:1005B000816080937A0080917A00806880937A00CD
:1005C0001092C100F8941092800010928100109255
:1005D0008500109284008FE493EC909389008093BF
:1005E00088008091810088608093810080916F00F5
:1005F000826080936F00809181008360809381008E
:100600007894219A85E290E090934D0180934C017B
:1006100082E080934E01539829E230E030935001FC
:1006200020934F0198E090935101E0919501F09152
:1006300096018083E0919101F09192011082E09106
:100640009301F09194018FEC808310929D01E091D1
:100650009901F0919A0186E08083E0919701F091F1
:100660009801808180618083E0919701F0919801E9
:10067000808188608083E0919701F091980180816A
:1006800080688083E0919701F091980180818F7D4F
:100690008083FFCFEE0FFF1F0590F491E02D0994AA
:0E06A00081E090E0F8940C945503F894FFCF9D
:1006AE0000000000EC005F008E003301BF009D00D3
:1006BE00B1000D0A00696E74657272757074007205
:1006CE00657475726E696E672048494748005365B8
:1006DE0074484947480052657475726E696E67209A
:0C06EE004C4F57005365744C4F570000F0
:00000001FF
