:100000000C9435000C945D000C945D000C945D0024
:100010000C945D000C945D000C945D000C945D00EC
:100020000C945D000C945D000C945D000C94CF0169
:100030000C945D000C945D000C945D000C945D00CC
:100040000C945D000C945D000C949D010C94770160
:100050000C945D000C945D000C945D000C945D00AC
:100060000C945D000C945D00470211241FBECFEF7D
:10007000D8E0DEBFCDBF11E0A0E0B1E0EAE0F6E0FD
:1000800002C005900D92AA36B107D9F722E0AAE680
:10009000B1E001C01D92A735B207E1F710E0C5E35A
:1000A000D0E004C02197FE010E94F802C433D107BA
:1000B000C9F70E9474020C9403030C940000CF92C1
:1000C000DF92EF92FF920F931F93CF93DF936C0118
:1000D0007A018B01C0E0D0E0CE15DF0589F0D801B0
:1000E0006D918D01D601ED91FC910190F081E02D93
:1000F000C6010995892B11F47E0102C02196ECCF2F
:10010000C701DF91CF911F910F91FF90EF90DF908A
:10011000CF900895089580E090E00895FC01538DFC
:10012000448D252F30E0842F90E0821B930B5417D1
:1001300010F0CF96089501970895FC01918D828D5E
:10014000981761F0828DDF01A80FB11D5D968C912B
:10015000928D9F5F9F73928F90E008958FEF9FEF36
:100160000895FC01918D828D981731F0828DE80FF2
:10017000F11D858D90E008958FEF9FEF0895FC01AC
:10018000918D228D892F90E0805C9F4F821B910979
:100190008F7399270895FC01848DDF01A80FB11D8D
:1001A000A35ABF4F2C91848D90E001968F739927AD
:1001B000848FA689B7892C93A089B1898C9180649A
:1001C0008C93938D848D981306C00288F389E02D5B
:1001D00080818F7D80830895EF92FF920F931F930C
:1001E000CF93DF93EC0181E0888F9B8D8C8D9813EA
:1001F00005C0E889F989808185FD24C0F62E0B8D24
:1002000010E00F5F1F4F0F731127E02E8C8DE81247
:100210000CC00FB607FCFACFE889F989808185FF09
:10022000F5CFCE010E94CB00F1CF8B8DFE01E80F00
:10023000F11DE35AFF4FF0820B8FEA89FB89808121
:10024000806207C0EE89FF896083E889F98980812F
:100250008064808381E090E0DF91CF911F910F91C6
:10026000FF90EF900895CF93DF93EC01888D882362
:10027000C9F0EA89FB89808185FD05C0A889B98913
:100280008C9186FD0FC00FB607FCF5CF808185FFEE
:10029000F2CFA889B9898C9185FFEDCFCE010E945C
:1002A000CB00E7CFDF91CF910895009769F0FC0173
:1002B00001900020E9F73197AF01481B590BBC01B1
:1002C0008AEB91E00C945F0080E090E00895CF937A
:1002D000DF930E945501EC0182E191E00E945501FB
:1002E0008C0F9D1FDF91CF9108950E94FE021F92F7
:1002F0000F920FB60F9211242F933F934F935F935A
:100300006F937F938F939F93AF93BF93EF93FF93DD
:100310008AEB91E00E94CB00FF91EF91BF91AF91EA
:100320009F918F917F916F915F914F913F912F910D
:100330000F900FBE0F901F9018951F920F920FB63F
:100340000F9211242F938F939F93EF93FF93E0913C
:10035000CA01F091CB018081E091D001F091D101EF
:1003600082FD12C090818091D3018F5F8F732091A5
:10037000D401821751F0E091D301F0E0E654FE4F32
:10038000958F8093D30101C08081FF91EF919F9160
:100390008F912F910F900FBE0F901F9018951F9265
:1003A0000F920FB60F9211242F933F934F935F93A9
:1003B0006F937F938F939F93AF93BF93EF93FF932D
:1003C000CF93DF93CDB7DEB7A197DEBFCDBF85E179
:1003D00091E00E9467018FE191E00E9467018DE248
:1003E00091E00E94670119A286E388A3CE0180965E
:1003F0000E94550182E191E00E94550186E391E05F
:100400000E94670184B5806884BD87E491E00E9402
:1004100067018EEF87BD88E591E00E946701E0915A
:100420006F01F09170019081809171018923E091B9
:100430006A01F0916B01882329F080916C01908111
:10044000892B0BC090916C018081282F30E0892F7F
:1004500090E080959095822393238083A1960FB698
:10046000F894DEBF0FBECDBFDF91CF91FF91EF912A
:10047000BF91AF919F918F917F916F915F914F91BC
:100480003F912F910F900FBE0F901F901895EAEBA0
:10049000F1E01382128288EE93E0A0E0B0E0848362
:1004A0009583A683B78384E091E09183808385EC74
:1004B00090E09587848784EC90E09787868780EC2E
:1004C00090E0918B808B81EC90E0938B828B82EC1F
:1004D00090E0958B848B86EC90E0978B868B118EC9
:1004E000128E138E148E0895F8941092800010923C
:1004F000810010928500109284008FE493EC909319
:1005000089008093880080918100886080938100B9
:1005100080916F00826080936F0080918100836082
:10052000809381007894E091CA01F091CB0192E030
:100530009083E091C601F091C7011082E091C8015B
:10054000F091C9018FEC80831092D201E091CE012D
:10055000F091CF0186E08083E091CC01F091CD0154
:10056000808180618083E091CC01F091CD01808118
:1005700088608083E091CC01F091CD01808180681A
:100580008083E091CC01F091CD0180818F7D8083CB
:10059000219A25E230E030936B0120936A01909319
:1005A0006C0189E090E090936E0180936D01259835
:1005B00083E290E09093700180936F0180E28093DA
:1005C00071018DE090E09093730180937201569ACF
:1005D0008BE290E0909375018093740180E48093A6
:1005E000760186E090E09093780180937701FFCFC9
:1005F000EE0FFF1F0590F491E02D099481E090E04B
:0A060000F8940C940303F894FFCF64
:10060A0000000000EC005F008E003301BF009D0077
:10061A00B1000D0A00696E746572727570740069B2
:10062A006E2073657420616E616C6F670050696E2D
:10063A002069733A20005377697463683A205375C6
:10064A0063636573732100536574204269743A20A9
:10065A0053756365737321005365745F56616C3A11
:0A066A00205375636365737321006C
:00000001FF
