:100000000C9435000C945D000C945D000C945D0024
:100010000C945D000C945D000C945D000C945D00EC
:100020000C945D000C945D000C945D000C945D00DC
:100030000C945D000C945D000C947B020C945D00AC
:100040000C945D000C945D000C9449020C94230206
:100050000C945D000C945D000C945D000C945D00AC
:100060000C945D000C945D00A90211241FBECFEF1B
:10007000D8E0DEBFCDBF22E0A2E4B1E001C01D9216
:10008000A134B207E1F711E0A0E0B1E0E4E1F9E06A
:1000900002C005900D92A234B107D9F710E0C5E374
:1000A000D0E004C02197FE010E943804C433D10778
:1000B000C9F70E94D6020C9488040C940000CF92D9
:1000C000DF92EF92FF920F931F93CF93DF936C0118
:1000D0007A018B01C0E0D0E0CE15DF0589F0D801B0
:1000E0006D918D01D601ED91FC910190F081E02D93
:1000F000C6010995892B11F47E0102C02196ECCF2F
:10010000C701DF91CF911F910F91FF90EF90DF908A
:10011000CF900895089580E090E00895FC01538DFC
:10012000448D252F30E0842F90E0821B930B5417D1
:1001300010F0CF96089501970895FC01918D828D5E
:10014000981761F0828DDF01A80FB11D5D968C912B
:10015000928D9F5F9F73928F90E008958FEF9FEF36
:100160000895FC01918D828D981731F0828DE80FF2
:10017000F11D858D90E008958FEF9FEF0895FC01AC
:10018000918D228D892F90E0805C9F4F821B910979
:100190008F7399270895FC01848DDF01A80FB11D8D
:1001A000A35ABF4F2C91848D90E001968F739927AD
:1001B000848FA689B7892C93A089B1898C9180649A
:1001C0008C93938D848D981306C00288F389E02D5B
:1001D00080818F7D80830895EF92FF920F931F930C
:1001E000CF93DF93EC0181E0888F9B8D8C8D9813EA
:1001F00005C0E889F989808185FD24C0F62E0B8D24
:1002000010E00F5F1F4F0F731127E02E8C8DE81247
:100210000CC00FB607FCFACFE889F989808185FF09
:10022000F5CFCE010E94CB00F1CF8B8DFE01E80F00
:10023000F11DE35AFF4FF0820B8FEA89FB89808121
:10024000806207C0EE89FF896083E889F98980812F
:100250008064808381E090E0DF91CF911F910F91C6
:10026000FF90EF900895CF93DF93EC01888D882362
:10027000C9F0EA89FB89808185FD05C0A889B98913
:100280008C9186FD0FC00FB607FCF5CF808185FFEE
:10029000F2CFA889B9898C9185FFEDCFCE010E945C
:1002A000CB00E7CFDF91CF910895AC018FEF860FA0
:1002B0008730D8F49AB1A62FB0E021E030E001C039
:1002C000220F6A95EAF7922B9AB985E0849FF00194
:1002D000859FF00D1124EF51FE4F8BE290E091834A
:1002E00080832283B483A3831FC088EF860F863068
:1002F000E8F494B1862F877021E030E001C0220F2E
:100300008A95EAF7922B94B985E0849FF001859F46
:10031000F00D1124EF51FE4F85E290E09183808330
:10032000228370E07483638381E0089580E0089500
:100330002CEC30E030933A02209339024CEC5CEC28
:1003400060E070E0409335025093360260933702CC
:100350007093380225E0289FF001299FF00D1124A9
:10036000EF51FE4F23813481E0E0F1E04191519162
:100370004217530729F041E0EA30F407B9F72FC0DC
:1003800026303105D1F04CF42330310521F12530F0
:10039000310529F58CEC88BD08952A30310581F0AE
:1003A0002B303105A1F029303105C9F48DE790E0FB
:1003B000909389008093880008958CEC87BD089500
:1003C0008DE790E090938B0080938A0008958CECE9
:1003D0008093B30008958CEC8093B400089525E0D9
:1003E000289FF001299FF00D1124EF51FE4F8281CB
:1003F0000190F081E02D9081892B80830895CF9327
:10040000DF93009779F0FC0101900020E9F7319724
:10041000AF01481B590BBC0184E491E00E945F00CE
:10042000EC0102C0C0E0D0E042E050E06EE171E0DB
:1004300084E491E00E945F008C0F9D1FDF91CF91BB
:1004400008950E943E041F920F920FB60F9211243E
:100450002F933F934F935F936F937F938F939F93CC
:10046000AF93BF93EF93FF9384E491E00E94CB009E
:10047000FF91EF91BF91AF919F918F917F916F917C
:100480005F914F913F912F910F900FBE0F901F9052
:1004900018951F920F920FB60F9211242F938F93DE
:1004A0009F93EF93FF93E0915401F0915501808168
:1004B000E0915A01F0915B0182FD12C09081809120
:1004C0005D018F5F8F7320915E01821751F0E09183
:1004D0005D01F0E0EC5BFE4F958F80935D0101C004
:1004E0008081FF91EF919F918F912F910F900FBE7F
:1004F0000F901F9018951F920F920FB60F92112414
:100500002F933F934F935F936F937F938F939F931B
:10051000AF93BF93EF93FF9381E291E00E94FF01BD
:1005200083E090E00E94980184E090E00E949801AE
:10053000FF91EF91BF91AF919F918F917F916F91BB
:100540005F914F913F912F910F900FBE0F901F9091
:100550001895E4E4F1E01382128288EE93E0A0E0C3
:10056000B0E084839583A683B78380E191E0918393
:10057000808385EC90E09587848784EC90E0978772
:10058000868780EC90E0918B808B81EC90E0938B60
:10059000828B82EC90E0958B848B86EC90E0978B3D
:1005A000868B118E128E138E148E0895E091540155
:1005B000F091550182E08083E0915001F09151016A
:1005C0001082E0915201F09153018FEC80831092E0
:1005D0005C01E0915801F091590186E08083E0913F
:1005E0005601F0915701808180618083E09156012E
:1005F000F0915701808188608083E0915601F091ED
:100600005701808180688083E0915601F091570105
:1006100080818F7D80838DE291E00E94FF01609157
:100620003F02709140028CE391E00E944304F894F1
:10063000C4E4D0E014BC15BC16BC89EF87BD85B5F9
:10064000826085BD80916E00826080936E0085B56A
:10065000836085BD6AE083E090E00E94550163E01D
:1006600084E090E00E9455018091F3019091F401A3
:1006700086309105C9F164F483309105F9F005974E
:1006800009F056C084B5836284BD88E490E031C02F
:100690008A309105B9F18B309105C1F0099709F0C5
:1006A00047C08091800081628093800080918100AA
:1006B0008860809381008AE890E030C08091B0002B
:1006C00083628093B00084EB90E007C08091B0001B
:1006D00083688093B00083EB90E090933402809322
:1006E000330280EB90E020C084B5836884BD87E44A
:1006F00090E09093340280933302D0934301C093EF
:10070000420116C0809180008168809380008091B2
:10071000810088608093810088E890E090933202A5
:100720008093310280E890E09093430180934201EE
:100730008091420190914301803B910531F4809179
:10074000B10082608093B1000FC08434910521F420
:1007500085B5826085BD08C08038910529F48091F7
:10076000810082608093810063E084E090E00E94D9
:1007700055018091F8019091F90186309105C9F1F8
:1007800064F483309105F9F0059709F054C084B5FD
:10079000836284BD88E490E031C08A309105A9F17C
:1007A0008B309105C1F0099709F045C08091800018
:1007B00081628093800080918100886080938100B5
:1007C0008AE890E02EC08091B00083628093B000F0
:1007D00084EB90E007C08091B00083688093B00004
:1007E00083EB90E0909334028093330280EB90E0AF
:1007F0001EC084B5836884BD87E490E09093340282
:100800008093330284E490E012C08091800081687C
:10081000809380008091810088608093810088E8C7
:1008200090E0909332028093310280E890E09093C0
:100830004301809342018091420190914301803BAA
:10084000910531F48091B10084608093B1000FC0B4
:100850008434910521F485B5846085BD08C0803855
:10086000910529F480918100846080938100FFCFFD
:10087000EE0FFF1F0590F491E02D099481E090E0C8
:10088000F8940C948804EF92FF920F931F93CF93E8
:10089000DF93DB0113962C9121FF18C08B017C01A3
:1008A000D0E0C0E0F70181917F01882361F0D80199
:1008B0001896ED91FC911997B8010995892B91F340
:1008C000DFEFCFEFEFCF8D2F9C2F02C08FEF9FEF89
:1008D000CDB7DEB7E6E00C9479042A8839884888D9
:1008E0005F846E847D848C849B84AA84B984C8844C
:1008F000DF80EE80FD800C811B81AA81B981CE0F43
:10090000D11D0FB6F894DEBF0FBECDBFED01089527
:04091000F894FFCF89
:1009140003000500060009000A000B0000000000A7
:10092400EC005F008E003301BF009D00B1000D0A92
:1009340000737465702073657269616C007374610F
:10094400727465642073657269616C007465737494
:020954000000A1
:00000001FF
