:100000000C9435000C945D000C945D000C945D0024
:100010000C945D000C945D000C945D000C945D00EC
:100020000C945D000C945D000C945D000C941B021C
:100030000C945D000C945D000C945D000C945D00CC
:100040000C9479010C945D000C94E9010C94C301AB
:100050000C945D000C945D000C945D000C945D00AC
:100060000C945D000C945D00650211241FBECFEF5F
:10007000D8E0DEBFCDBF11E0A0E0B1E0E6E9F6E0F8
:1000800002C005900D92AE32B107D9F722E0AEE280
:10009000B1E001C01D92A430B207E1F710E0C5E362
:1000A000D0E004C02197FE010E943E03C433D10773
:1000B000C9F70E9492020C9449030C940000CF925D
:1000C000DF92EF92FF920F931F93CF93DF936C0118
:1000D0007A018B01C0E0D0E0CE15DF0589F0D801B0
:1000E0006D918D01D601ED91FC910190F081E02D93
:1000F000C6010995892B11F47E0102C02196ECCF2F
:10010000C701DF91CF911F910F91FF90EF90DF908A
:10011000CF900895089580E090E00895FC01538DFC
:10012000448D252F30E0842F90E0821B930B5417D1
:1001300010F0CF96089501970895FC01918D828D5E
:10014000981761F0828DDF01A80FB11D5D968C912B
:10015000928D9F5F9F73928F90E008958FEF9FEF36
:100160000895FC01918D828D981731F0828DE80FF2
:10017000F11D858D90E008958FEF9FEF0895FC01AC
:10018000918D228D892F90E0805C9F4F821B910979
:100190008F7399270895FC01848DDF01A80FB11D8D
:1001A000A35ABF4F2C91848D90E001968F739927AD
:1001B000848FA689B7892C93A089B1898C9180649A
:1001C0008C93938D848D981306C00288F389E02D5B
:1001D00080818F7D80830895EF92FF920F931F930C
:1001E000CF93DF93EC0181E0888F9B8D8C8D9813EA
:1001F00005C0E889F989808185FD24C0F62E0B8D24
:1002000010E00F5F1F4F0F731127E02E8C8DE81247
:100210000CC00FB607FCFACFE889F989808185FF09
:10022000F5CFCE010E94CB00F1CF8B8DFE01E80F00
:10023000F11DE35AFF4FF0820B8FEA89FB89808121
:10024000806207C0EE89FF896083E889F98980812F
:100250008064808381E090E0DF91CF911F910F91C6
:10026000FF90EF900895CF93DF93EC01888D882362
:10027000C9F0EA89FB89808185FD05C0A889B98913
:100280008C9186FD0FC00FB607FCF5CF808185FFEE
:10029000F2CFA889B9898C9185FFEDCFCE010E945C
:1002A000CB00E7CFDF91CF910895CF93DF930097F5
:1002B00079F0FC0101900020E9F73197AF01481B6C
:1002C000590BBC0187E691E00E945F00EC0102C07F
:1002D000C0E0D0E042E050E062E171E087E691E00A
:1002E0000E945F008C0F9D1FDF91CF9108950E94A7
:1002F00044031F920F920FB60F9211242F933F9336
:100300008F939F93AF93BF9380916301909164010A
:10031000A0916501B09166013091620123E0230F45
:100320002D3720F40196A11DB11D05C026E8230F2D
:100330000296A11DB11D20936201809363019093E9
:100340006401A0936501B093660180915E01909174
:100350005F01A0916001B09161010196A11DB11DE5
:1003600080935E0190935F01A0936001B09361015F
:10037000BF91AF919F918F913F912F910F900FBEA1
:100380000F901F9018951F920F920FB60F92112485
:100390002F933F934F935F936F937F938F939F938D
:1003A000AF93BF93EF93FF9387E691E00E94CB005A
:1003B000FF91EF91BF91AF919F918F917F916F913D
:1003C0005F914F913F912F910F900FBE0F901F9013
:1003D00018951F920F920FB60F9211242F938F939F
:1003E0009F93EF93FF93E0917701F09178018081E3
:1003F000E0917D01F0917E0182FD12C0908180919B
:1004000080018F5F8F7320918101821751F0E091FD
:100410008001F0E0E959FE4F958F8093800101C083
:100420008081FF91EF919F918F912F910F900FBE3F
:100430000F901F9018951F920F920FB60F921124D4
:100440002F933F934F935F936F937F938F939F93DC
:10045000AF93BF93EF93FF9385E191E00E94550125
:10046000E0913101F091320180812091330190E0DF
:1004700002C0959587952A95E2F7E0912E01F091BB
:100480002F0180FF08C0809130019081892B8083EB
:100490008FE191E007C080913001908189278083AE
:1004A00087E291E00E945501FF91EF91BF91AF91DA
:1004B0009F918F917F916F915F914F913F912F917C
:1004C0000F900FBE0F901F901895E7E6F1E0138292
:1004D000128288EE93E0A0E0B0E084839583A68347
:1004E000B78384E091E09183808385EC90E09587E9
:1004F000848784EC90E09787868780EC90E0918BEE
:10050000808B81EC90E0938B828B82EC90E0958BDA
:10051000848B86EC90E0978B868B118E128E138ED7
:10052000148E0895789484B5826084BD84B581600A
:1005300084BD85B5826085BD85B5816085BD8091AE
:100540006E00816080936E00109281008091810026
:10055000826080938100809181008160809381001E
:10056000809180008160809380008091B1008460E0
:100570008093B1008091B00081608093B000809141
:100580007A00846080937A0080917A008260809300
:100590007A0080917A00816080937A0080917A005D
:1005A000806880937A001092C100F89410928000C5
:1005B0001092810010928500109284008FE493ECD9
:1005C0009093890080938800809181008860809357
:1005D000810080916F00826080936F008091810024
:1005E0008360809381007894239A85E290E09093D1
:1005F0002F0180932E0188E08093300114B883E2AC
:1006000090E0909332018093310184E08093330134
:10061000E0917701F091780182E08083E0917301AD
:10062000F09174011082E0917501F09176018FECE8
:10063000808310927F01E0917B01F0917C0186E044
:100640008083E0917901F0917A01808180618083DB
:10065000E0917901F0917A01808188608083E09156
:100660007901F0917A01808180688083E09179013D
:10067000F0917A0180818F7D8083FFCFEE0FFF1F85
:100680000590F491E02D099481E090E0F8940C94A9
:060690004903F894FFCFBE
:1006960000000000EC005F008E003301BF009D00EB
:1006A600B1000D0A00696E7465727275707400533C
:0E06B600657448494748005365744C4F57001F
:00000001FF
