:100000000C9434000C9446000C9446000C9446006A
:100010000C9446000C9446000C9446000C94460048
:100020000C9446000C9446000C9446000C94A800D6
:100030000C9446000C9446000C9446000C94460028
:100040000C945E000C9446000C9446000C94460000
:100050000C9446000C9446000C9446000C94460008
:100060000C9446000C94460011241FBECFEFD8E03C
:10007000DEBFCDBF21E0A0E0B1E001C01D92A334FE
:10008000B207E1F70E9430010C94BF010C9400000C
:10009000FC01EE0FFF1F8E0F9F1FFC01E050FF4F72
:1000A00082810190F081E02D90816130710511F421
:1000B000892B02C080958923808308951F920F9217
:1000C0000FB60F9211242F933F938F939F93AF936B
:1000D000BF9380913F0190914001A0914101B09167
:1000E000420130913E0123E0230F2D3720F4019689
:1000F000A11DB11D05C026E8230F0296A11DB11D4B
:1001000020933E0180933F0190934001A0934101D1
:10011000B093420180913A0190913B01A0913C0142
:10012000B0913D010196A11DB11D80933A019093BC
:100130003B01A0933C01B0933D01BF91AF919F91D2
:100140008F913F912F910F900FBE0F901F90189598
:100150001F920F920FB60F921124CF92DF92EF925F
:10016000FF922F933F934F935F936F937F938F9360
:100170009F93AF93BF93CF93DF93EF93FF938091C0
:10018000380190913901892B09F053C0C090340196
:10019000D0903501E0903601F0903701C1E0C114F4
:1001A000D104E104F10409F0C0E0C0933301CC2391
:1001B00041F0909132019093300181E08927809342
:1001C0003101D09131016D2F70E080E090E00E940C
:1001D0004800E0910301F0910401908180910501B4
:1001E000892361E070E011F460E070E082E090E06B
:1001F0000E944800C111D09332018FEFC81AD80A6B
:10020000E80AF80A8AE0C816D104E104F10448F4C7
:10021000C0923401D0923501E0923601F09237015C
:1002200008C01092340110923501109236011092DC
:100230003701FF91EF91DF91CF91BF91AF919F91E6
:100240008F917F916F915F914F913F912F91FF908F
:10025000EF90DF90CF900F900FBE0F901F901895EA
:10026000789484B5826084BD84B5816084BD85B591
:10027000826085BD85B5816085BD80916E0081609D
:1002800080936E0010928100809181008260809343
:100290008100809181008160809381008091800045
:1002A0008160809380008091B10084608093B10070
:1002B0008091B00081608093B00080917A0084606A
:1002C00080937A0080917A00826080937A00809196
:1002D0007A00816080937A0080917A0080688093B0
:1002E0007A001092C100F894109280001092810060
:1002F000109285001092840087EA91E6909389001D
:100300008093880080918100886080938100809133
:100310006F00826080936F00809181008360809382
:1003200081007894109239011092380110923401B2
:10033000109235011092360110923701109232015D
:10034000569A8BE290E0909301018093000180E443
:1003500080930201259883E290E0909304018093BA
:10036000030180E280930501219A85E290E0909359
:1003700007018093060182E080930801FFCFF89483
:02038000FFCFAD
:00000001FF
