:100000000C9434000C9446000C9446000C9446006A
:100010000C9446000C9446000C9446000C94460048
:100020000C9446000C9446000C9446000C94A800D6
:100030000C9446000C9446000C9446000C94460028
:100040000C945E000C9446000C9446000C94460000
:100050000C9446000C9446000C9446000C94460008
:100060000C9446000C94460011241FBECFEFD8E03C
:10007000DEBFCDBF21E0A0E0B1E001C01D92AC31F8
:10008000B207E1F70E9432010C94C1010C94000008
:10009000FC01EE0FFF1F8E0F9F1FFC01E050FF4F72
:1000A00082810190F081E02D90816130710511F421
:1000B000892B02C080958923808308951F920F9217
:1000C0000FB60F9211242F933F938F939F93AF936B
:1000D000BF938091180190911901A0911A01B091DC
:1000E0001B013091170123E0230F2D3720F40196D7
:1000F000A11DB11D05C026E8230F0296A11DB11D4B
:10010000209317018093180190931901A0931A016D
:10011000B0931B018091130190911401A0911501DE
:10012000B09116010196A11DB11D8093130190930A
:100130001401A0931501B0931601BF91AF919F9147
:100140008F913F912F910F900FBE0F901F90189598
:100150001F920F920FB60F921124CF92DF92EF925F
:10016000FF922F933F934F935F936F937F938F9360
:100170009F93AF93BF93CF93DF93EF93FF938091C0
:10018000110190911201892B09F055C0C0900D0109
:10019000D0900E01E0900F01F0901001C1E0C11469
:1001A000D104E104F10409F0C0E0C0930C01CC23B8
:1001B00041F090910B019093090181E08927809390
:1001C0000A01D0910A016D2F70E080E090E00E945A
:1001D0004800E0910301F0910401908180910501B4
:1001E000892361E070E011F460E070E082E090E06B
:1001F0000E944800C111D0930B018FEFC81AD80A92
:10020000E80AF80A80E4C81682E4D8068FE0E80617
:10021000F10448F4C0920D01D0920E01E0920F015A
:10022000F092100108C010920D0110920E01109270
:100230000F0110921001FF91EF91DF91CF91BF91CB
:10024000AF919F918F917F916F915F914F913F916E
:100250002F91FF90EF90DF90CF900F900FBE0F90F7
:100260001F901895789484B5826084BD84B58160B0
:1002700084BD85B5826085BD85B5816085BD809171
:100280006E00816080936E001092810080918100E9
:1002900082608093810080918100816080938100E1
:1002A000809180008160809380008091B1008460A3
:1002B0008093B1008091B00081608093B000809104
:1002C0007A00846080937A0080917A0082608093C3
:1002D0007A0080917A00816080937A0080917A0020
:1002E000806880937A001092C100F8941092800088
:1002F0001092810010928500109284008FE090E0AF
:100300009093890080938800809181008860809319
:10031000810080916F00826080936F0080918100E6
:1003200081608093810078941092120110921101E3
:1003300010920D0110920E0110920F0110921001F7
:1003400010920B01569A8BE290E0909301018093FA
:10035000000180E480930201259883E290E090936D
:1003600004018093030180E280930501219A85E2D4
:1003700090E0909307018093060182E0809308014A
:06038000FFCFF894FFCF4F
:00000001FF
